:020000041000EA
:1001000000000000000000000000000000000000EF
:1001100000000000000000000000000000000000DF
:1001200000000000000000000000000000000000CF
:1001300000000000000000000000000000000000BF
:1001400000000000000000000000000000000000AF
:10015000000000000000000000000000000000009F
:10016000000000000000000000000000000000008F
:10017000000000000000000000000000000000007F
:10018000000000000000000000000000000000006F
:10019000000000000000000000000000000000005F
:1001A000000000000000000000000000000000004F
:1001B000000000000000000000000000000000003F
:1001C000000000000000000000000000000000002F
:1001D000000000000000000000000000000000001F
:1001E000000000000000000000000000000000000F
:1001F00000000000000000000000000000000000FF
:10020000B8BA002041400010195C01102D400010C8
:100210002D4000102D4000102D4000102D400010EA
:1002200000000000000000000000000089400010F5
:100230002D40001000000000C9420010D1730010D2
:10024000754300107543001075430010754300108E
:10025000754300107543001075430010754300107E
:10026000754300107543001075430010754300106E
:10027000754300107543001075430010754300105E
:10028000754300107543001075430010754300104E
:10029000754300107543001075430010754300103E
:1002A000754300107543001075430010754300102E
:1002B000754300107543001075430010754300101E
:1002C000754300107543001075430010754300100E
:1002D00075430010754300107543001075430010FE
:1002E00075430010754300107543001075430010EE
:1002F00075430010754300107543001075430010DE
:1003000075430010754300107543001075430010CD
:10031000D3DEFFFF420121100302000000020010A3
:0C032000FF03000000000000793512AB64
:10033000EC46A0E8F05F80EC108B4FF000007047B7
:10034000B0E8F05FE54690EC108B080008BF012094
:10035000704700BF81F0004102E000BF83F000431E
:1003600030B54FEA41044FEA430594EA050F08BF50
:1003700090EA020F1FBF54EA000C55EA020C7FEA14
:10038000645C7FEA655C00F0E2804FEA5454D4EB91
:100390005555B8BF6D420CDD2C4480EA020281EA5B
:1003A000030382EA000083EA010180EA020281EA93
:1003B0000303362D88BF30BD11F0004F4FEA0131E5
:1003C0004FF4801C4CEA113102D0404261EB4101F4
:1003D00013F0004F4FEA03334CEA133302D052427A
:1003E00063EB430394EA050F00F0A780A4F1010436
:1003F000D5F1200E0DDB02FA0EFC22FA05F2801870
:1004000041F1000103FA0EF2801843FA05F3594155
:100410000EE0A5F120050EF1200E012A03FA0EFCD4
:1004200028BF4CF0020C43FA05F3C01851EBE371FE
:1004300001F0004507D54FF0000EDCF1000C7EEB1B
:1004400000006EEB0101B1F5801F1BD3B1F5001F59
:100450000CD349085FEA30004FEA3C0C04F1010478
:100460004FEA445212F5800F80F09A80BCF1004FA1
:1004700008BF5FEA500C50F1000041EB045141EA23
:10048000050130BD5FEA4C0C404141EB0101013CEC
:1004900028BFB1F5801FE9D291F0000F04BF0146DB
:1004A0000020B1FA81F308BF2033A3F10B03B3F1AD
:1004B00020020CDA0C3208DD02F1140CC2F10C023D
:1004C00001FA0CF021FA02F10CE002F11402D8BF9B
:1004D000C2F1200C01FA02F120FA0CFCDCBF41EA67
:1004E0000C019040E41AA2BF01EB0451294330BD36
:1004F0006FEA04041F3C1CDA0C340EDC04F1140413
:10050000C4F1200220FA04F001FA02F340EA0300E9
:1005100021FA04F345EA030130BDC4F10C04C4F12F
:10052000200220FA02F001FA04F340EA030029460F
:1005300030BD21FA04F0294630BD94F0000F83F459
:10054000801306BF81F480110134013D4EE77FEA3C
:10055000645C18BF7FEA655C29D094EA050F08BF88
:1005600090EA020F05D054EA000C04BF1946104669
:1005700030BD91EA030F1EBF0021002030BD5FEAAD
:10058000545C05D14000494128BF41F0004130BDD5
:1005900014F580043CBF01F5801130BD01F0004529
:1005A00045F0FE4141F470014FF0000030BD7FEA9C
:1005B000645C1ABF194610467FEA655C1CBF0B4697
:1005C000024650EA013406BF52EA033591EA030FAE
:1005D00041F4002130BD00BF90F0000F04BF0021A6
:1005E000704730B54FF4806404F132044FF00005D9
:1005F0004FF0000150E700BF90F0000F04BF002152
:10060000704730B54FF4806404F1320410F00045B7
:1006100048BF40424FF000013EE700BF42004FEAB2
:10062000E2014FEA31014FEA02701FBF12F07F432F
:1006300093F07F4F81F06051704732F07F4208BFE6
:10064000704793F07F4F04BF41F40021704730B5ED
:100650004FF4607401F0004521F000411CE700BF39
:1006600050EA010208BF704730B54FF000050AE0BC
:1006700050EA010208BF704730B511F0004502D5BD
:10068000404261EB41014FF4806404F132045FEABF
:10069000915C3FF4D8AE4FF003025FEADC0C18BF68
:1006A00003325FEADC0C18BF033202EBDC02C2F15A
:1006B000200300FA03FC20FA02F001FA03FE40EAEC
:1006C0000E0021FA02F11444BDE600BF4FEA4102D8
:1006D000B2F1E04324BFB3F5001CDCF1FE5C0DD9A0
:1006E00001F0004C4FEAC0024CEA5070B2F1004FEA
:1006F00040EB830008BF20F00100704711F0804FED
:1007000021D113F13872BCBF01F00040704741F4B1
:1007100080114FEA5252C2F11802C2F1200C10FAB5
:100720000CF320FA02F018BF40F001004FEAC12399
:100730004FEAD32303FA0CFC40EA0C0023FA02F33D
:100740004FEA4303CCE77FEA625307D150EA013313
:100750001EBF4FF0FE4040F44000704701F00040E3
:1007600040F0FE4040F40000704700BF53B94AB962
:10077000002908BF00281CBF4FF0FF314FF0FF30A9
:1007800000F00CB8ADF1080C6DE904CE00F022F8D1
:10079000DDF804E0DDE9022304B07047704700BFD4
:1007A00010F8012B11F8013B012A28BF9A42F7D01B
:1007B000D01A7047034611F8012B03F8012B002AC9
:1007C000F9D17047034613F8012B002AFBD1181A00
:1007D000013870472DE9F0478C468E46089E154635
:1007E00004461946002B40F0D080724547D9B2FA32
:1007F00082F74FB1C7F120030EFA07FCBD40BC40A1
:1008000020FA03F343EA0C0C4FEA154EA8B2230C6E
:10081000BCFBFEF80EFB18CC08FB00F943EA0C43C6
:10082000994528D9EB1808F1FF3204D2994502D92D
:10083000A8F102022B44A3EB0903A4B2B3FBFEFC14
:100840000EFB1C330CFB00F044EA0344A04214D915
:100850002C190CF1FF3304D2A04202D9ACF10203EF
:100860002C44241A43EA02401EB1FC4000233460A9
:100870007360BDE8F0874246DDE76346F1E7002A92
:1008800079D0B2FA82F3002B3FD01946C1F1200390
:1008900002FA01F500FA01F42EFA03F20EFA01FE53
:1008A00020FA03F3AFB243EA0E034FEA154EB2FB50
:1008B000FEFC0EFB1C201A0C0CFB07F842EA00425F
:1008C00090455AD9AA180CF1FF3004D2904502D9AC
:1008D000ACF102002A44A2EB08029BB2B2FBFEFC80
:1008E0000EFB1C220CFB07F743EA02439F4246D94A
:1008F000EB180CF1FF3204D29F4202D9ACF1020294
:100900002B44DB1B42EA004202E0AEEB0203012271
:100910004FEA154EAFB2200CB3FBFEFC0EFB1C33AE
:100920000CFB07F840EA034398452AD9EB180CF171
:10093000FF3004D2984502D9ACF102002B44A3EB5E
:100940000803A4B2B3FBFEFC0EFB1C330CFB07F741
:1009500044EA0344A74216D92C190CF1FF3304D200
:10096000A74202D9ACF102032C44E41B43EA004045
:100970000F46114678E71F2188E76046ABE76246DD
:10098000BFE76046DBE76346EFE7734506D916B974
:10099000002108466DE7C6E9000EF9E7B3FA83F7D0
:1009A00087B9734501D3824207D8841A6EEB0303DB
:1009B00001209C461EB900215BE73846FAE7C6E9EC
:1009C000004CF8E7C7F1200CBB4000FA07F422FA0C
:1009D0000CF520FA0CF1BA401D432EFA0CF30EFA76
:1009E00007FE4FEA154941EA0E011FFA85FEB3FBE7
:1009F000F9F809FB18300B0C08FB0EFA43EA004328
:100A00009A4540D9EB1808F1FF3004D29A4502D933
:100A1000A8F102002B44A3EB0A0389B2B3FBF9F857
:100A200009FB183308FB0EFE41EA03418E452CD921
:100A3000691808F1FF3304D28E4502D9A8F10203E8
:100A4000294443EA0040A1EB0E01A0FB0298414576
:100A5000CE46434602D306D14C4504D20138B9EB09
:100A6000020E68EB0503002EA5D0B4EB0E0261EB7D
:100A7000030101FA0CFC22FA07F3F9404CEA0303E4
:100A8000C6E9003197E74046C5E74346D9E700008D
:100A9000F8B510EE904A10EE103A34F000472DED04
:100AA000048BB0EE609A0DD183F480035B0013F5E4
:100AB000000F40F2AA8230EE098AB0EE480ABDEC7F
:100AC000048BF8BD23F000411846B1F1FF4F02D866
:100AD000B7F1FF4F08D9B3F17E5FECD184F4800405
:100AE000640014F5000FE4E7002B25DAB7F1974F07
:100AF00080F09482B7F17E5F39D3FA15C2F1960285
:100B000047FA02F505FA02F2BA4229D105F00105C9
:100B1000C5F10205B7F17E5F2AD1002C80F27B82FD
:100B2000B5EE400AF1EE10FA1CD1D80FBDEC048BE3
:100B3000BDE8F84014F092BBB7F1FF4F10D1B1F10E
:100B40007E5F00F0628205D9002CDFEDD17A29FEAC
:100B5000278AB2E7002C80F25B82B1EE498AACE7CB
:100B60000025D7E7B7EE007A87EE008AA5E70025D3
:100B7000B4F1804F0A4640F05782B1F1BF4F0CD21A
:100B8000B1F1D05F02D920EE008A96E7B0EEC08ABC
:100B900059BB012D00FE088A8FE723F04046B0EED6
:100BA000C08AB6F17E5F17D1002CBCBFB7EE007AC9
:100BB00087EE088A002B80DAA1F17E51294305D106
:100BC000BDEC048BBDE8F84014F056BB012D7FF45A
:100BD00074AFB1EE488A70E739B9002CD9DA002B2E
:100BE000A4D06B1E58425841A0E7DE0F013E55EAE3
:100BF0000600E5D0B7F19A4F71D9A64B994208D8B3
:100C0000002C0BDA0020BDEC048BBDE8F84014F09A
:100C100017BBA14B994208D9002CF3DC0020BDEC96
:100C2000048BBDE8F84014F0FDBAB7EE007ADFEDB2
:100C30009B7ADFED9B9A38EE478A93A1D1E90001B8
:100C400068EE278AFFF742FDB5EE007A07EE900ABC
:100C5000DFED946A68EE299A48EE477AB6EE007A9C
:100C600007EEC87A68EE087A27EE277AF0EE687AFF
:100C700047EE667A39EEA77A17EE103A6FF30B0358
:100C800007EE103A77EE699A77EEE97A013DF7EED2
:100C9000006ABFEE008A6FF30B04354367EE890AE2
:100CA00008FE268A06EE904A39EE666A67EE267AD4
:100CB00046EE070A30EEA77A17EE101A002921F047
:100CC000004340F31381B3F1864F40F2CC80B5EE80
:100CD000C08AF1EE10FA4CBF0120002093E713F018
:100CE000FF4F05BF9FED707A6FF01701002168EE8E
:100CF000077A08BF17EE902AD315C2F316027F3B7E
:100D000042F07E500B4469498A4206DD68498A42B6
:100D100040F3A7800133A0F500000021654A06EEEC
:100D2000100AF7EE006A02EB8102D2ED005A75EE6E
:100D3000867A36EE657AC6EEA74A27EE245A15EE75
:100D4000102A6FF30B0206EE902A5B4A02EA600259
:100D500042F0005202F5800202EB415207EE902A67
:100D600006EEE77A77EEE57ADFED545A36EE676AFB
:100D700065EE057A06EE667A9FED516A47EE865A71
:100D80009FED506A27EE247A66EEA64A05EEA76A22
:100D9000DFED4D5A46EE275A9FED4C6A05EEA76AE5
:100DA000DFED4B5A46EE275A36EE856A67EEA77A94
:100DB00026EE076A05EEA76AF0EE085A74EEA57AE9
:100DC00077EE867A17EE902A6FF30B0207EE902AE1
:100DD00077EEE55A27EE277A66EEA76A75EEE45AB3
:100DE00036EE656A06EE057A9FED3A6A76EE877A08
:100DF00017EE902A6FF30B0207EE902A364A77EE31
:100E0000E66A02EB810227EE866A37EE667ADFED4C
:100E1000336A67EEA67ADFED326A47EE267A92ED04
:100E2000007A77EE877A07EE103A2E4BF8EEC76A13
:100E300003EB810336EE277AD3ED005A37EE257A9D
:100E400037EE267A17EE103A6FF30B0307EE103ADF
:100E500077EE666A76EEE56A76EEC66A77EEE67A51
:100E600014E701215AE755D1DFED1F6A37EE677AA3
:100E700070EEA66AF4EEC76AF1EE10FA3FF727AFFC
:100E800086234BE0AFF30080E13D55555555D53FE6
:100E900000000000F3FF7F3F0700803F70A5EC36A5
:100EA00000AAB83F3BAAB83F0000804B71C41C00A9
:100EB000D6B35D00C0E0011000F0FFDF55326C3E9C
:100EC00042F1533E05A38B3EABAAAA3EB76DDB3E73
:100ED0009A99193F0040763FB0E00110C623F6B85A
:100EE0004F38763FB8E001103CAA3833534A93425A
:100EF00007D9B5EEC08AF1EE10FA4CBF01200020F0
:100F00008DE607D137EE677AB4EEE07AF1EE10FAAB
:100F1000B6DBEEE7B3F17C5F72D9DB157E3B4FF4B5
:100F20000000474A002940FA03F00844C0F3C753C1
:100F3000A3F17F0342FA03F2C3F1170302EA0002AE
:100F4000C0F3160040F4000007EE102A40FA03F048
:100F500077EEC77AB8BF404237EEA07ADFED396A44
:100F6000DFED395AB7EE000A9FED386A17EE103AF6
:100F70006FF30B0307EE103A77EE677A67EE266A97
:100F800070EEE70ADFED327A27EE277ADFED317A6D
:100F900000EEA77A76EE877A77EEE66A37EE667A23
:100FA00067EEA76A07EE877A16EEA56ADFED2A5A82
:100FB00046EE265A9FED296A15EEA66ADFED285AFD
:100FC00046EE265AB0EE676A05EEE66AF0EE006A73
:100FD00067EE865A36EE666AC5EE866A36EEC77AE0
:100FE00077EE677A30EE670A10EE103A03EBC053E3
:100FF000B3F5000F06DA14F0B3F820EE088A5CE5CA
:101000000020A9E700EE103AF7E7B7EE008A54E5B2
:101010009FED148A51E5B0EE408A4EE5B7F1FF4FDF
:101020003FF48DAD0A460225B4F17C5F7FF4B5AD87
:10103000002BFFF6B2ADB1EEC08A3EE500001643CC
:10104000000080FF0072313F4CBB31330EEADD35CA
:101050008CBEBF351872313F55B38A38610B363BB1
:10106000ABAA2A3E0000000070B504460D46836816
:101070005B6CA3B19847002811DDA3681B6C53B9C2
:10108000A3685B6B63B9094B1B6843B129462046D3
:10109000BDE870401847204698470028F0D170BD41
:1010A000204698470028FAD0EDE700BF180E002030
:1010B00008B504481BF0D2FB00280CBF6FF01200EB
:1010C000002008BD80D1011070B504460D460A48C5
:1010D0001BF0C4FB60B1084E2544AC4201D1002096
:1010E00070BD14F8011BB36803485B689847F4E7C8
:1010F0006FF01200F4E700BF80D1011070B5044614
:101100000D460D481BF0AAFB78B10B4E2544A542B5
:1011100001D1002008E0B3681B684BB1214630467E
:10112000984701340028F2D070BD6FF01200FBE741
:101130006FF05700F8E700BF80D1011037B50446C3
:101140000E4D28461BF08AFB90B1A37922688DF8DA
:10115000063000230092A2888DF80730ADF80420F5
:10116000AB68DB683BB169462846984703B030BDA1
:101170006FF01200FAE76FF05700F7E780D1011027
:1011800070B505460E460D4C20461BF067FB78B146
:101190000B4B1D60A56875B1AB6C63B13246204640
:1011A00008499847AB6A0BB120469847002070BDAC
:1011B0006FF01200FBE76FF05700F8E780D10110E5
:1011C000180E002069100010002210B511460446C8
:1011D00015F052FF00222046114615F04DFF204623
:1011E00000F02EF920466FF00101054A15F095FF39
:1011F00020466FF00101034A15F08FFF012010BD5A
:1012000006EA0110D0E0011038B50F4D0622012189
:10121000044616F0E1F82A68931C03D020460B49D7
:1012200016F079F80A4B204608491C6016F028F899
:10123000002128600748FFF7A3FF0146204615F06C
:1012400033FE012038BD00BFB000002019FCFFBFF5
:101250001C0E002059120010014810F0E3BB00BF23
:10126000A0000020F8B50121044606F0EBFC051EA5
:1012700005DC2046BDE8F8400E4915F0E6BF012226
:101280002946204615F0BEFF29460746FFF736FFE0
:1012900006460146204615F007FE26B1204615F009
:1012A000FCFD0220F8BD2A463946204606F082FAA7
:1012B000F7E700BFDAE0011013B50E4C2068B8B1B3
:1012C0000D4B1A68931C13D00C4915F0A8FE00238F
:1012D000CDE900331A461946206806F08FFA38B176
:1012E0006FF00101206802B0BDE8104015F0CDBCE0
:1012F00002B010BD1C0E0020B000002019FCFFBF82
:1013000037B504460522012116F066F8424A01214C
:10131000204615F061FE4FF0FF31204606F092FCAA
:1013200005466FF00101204615F0AFFC01213B4A54
:101330002046009515F050FE4FF0FF310023204667
:10134000374A16F067F837490546FFF729FA0028AB
:1013500056D028463449FFF723FA002852D02846B1
:101360002F49FFF71DFA20B12A4620462F4915F0D4
:101370006CFF00256FF00101204615F086FC01216D
:101380002B4A20468DF8045015F026FE01224FF01E
:10139000FF31204616F056F805466FF00101204651
:1013A00015F073FC012D07D0022D2DD02A462046C2
:1013B000204915F04AFFC5B201211F4A20468DF889
:1013C000055015F009FE08224FF0FF31204616F0B7
:1013D00039F805466FF00101204615F056FCEB1F69
:1013E000022B13D8681FC0B28DF806006846FFF7BD
:1013F000A5FE0146204615F057FD012003B030BD83
:101400000125B7E70225B5E70325D5E72A4620469B
:101410000A4915F01AFFE6E7EFE00110F8E00110C5
:10142000FFE0011004E1011008E101100DE10110DD
:1014300044E101104EE1011075E101107FE101105E
:1014400010B504469FED080A442106F051FC2046E1
:101450000522002115F010FE20460022034906F067
:101460000FFC012010BD00BF0080FC4350D90110CB
:1014700010B504460A4A0B4915F0F4FF2046002235
:10148000094915F065FD2046084A6FF0010115F085
:1014900044FE20466FF0010115F0F7FB002010BD5F
:1014A000BEE1011019FCFFBFC9110010C7E1011016
:1014B00013B54FF400422549254800F007FB0022F0
:1014C000234924480AF0FCFC04460FF0A7F8204604
:1014D000FFF7CEFF78B1204619F09BFF1E495A2333
:1014E0001E4A1F4814F009F91E4814F006F95A2143
:1014F0001A4814F0F9F820461B4915F029FF034655
:10150000C8B100224FF0FF31204615F06BFC0146B8
:10151000164814F0DCF86FF00101204615F0B5FB19
:10152000204619F076FF4FF40041094802B0BDE8AB
:1015300010400FF02FB80146CDE900004FF0FF3208
:10154000204606F05BF90028DBD1E9E74C100020CB
:10155000200E00206D0501103C0E0210CDE101109F
:101560001BE2011038E20110D41802105AE20110F7
:101570002DE9F04104460D4613F0F2FE804618BBFB
:101580002946204613F0BDFE0146204613F00DFF0C
:1015900004EB8001CE69CEB90122E3688240134397
:1015A000E3600222CD612B462946204613F09EFEC1
:1015B00003222946204613F099FE2946204613F0BF
:1015C000DDFE236903442361BDE8F0810222314638
:1015D000204613F080FE032201460746204613F002
:1015E0007AFE86420BD001210F4A104814F045FACA
:1015F00088F31188BFF36F8F0423184602DF3B4640
:1016000002222946204613F071FE03223346294662
:10161000204613F06BFE39462B46204613F066FE3B
:1016200002223146C6E700BF83E201102CD601102A
:101630002DE9F041904603220D46044613F04BFE7F
:101640008542064608F1060713D10122E36802FA33
:1016500008F223EA0203E360002304EB87077B60C0
:101660002946204613F08AFE23691B1A2361BDE830
:10167000F08102222946204613F02DFE0322014666
:101680008046204613F027FE854206D102223146CD
:10169000204613F020FE85420CD001210D4A0E4851
:1016A00014F0EBF9002383F31188BFF36F8F042349
:1016B000184602DF04EB87073346414620460322E3
:1016C0007E6013F013FE434602223146204613F09B
:1016D0000DFEC5E783E201102CD6011038B50122BA
:1016E00005460C4613F0F7FDC30713D421462846E0
:1016F00013F030FE0146284613F025FE844209D13E
:101700002146284613F01FFE0146284613F022FE0C
:1017100084420CD00121064A064814F0AEF9002399
:1017200083F31188BFF36F8F0423184602DF38BD9F
:10173000A7E201102CD601102DE9F0470446884697
:1017400000AF13F028FEA1680646B1F5004F36BF82
:10175000A8F10403002303F00703B1F5004F34BFE1
:101760004FF0040C4FF0080C02F0070007301D1872
:101770006544ED0805EBD2058D4228BF0D460122D8
:101780003146204613F0A7FD10EA020A16D1E946B9
:1017900088B06A466B4BCDE90538032342F8103F09
:1017A0004FF4C2515346684801F0D2FCCD468AF34B
:1017B0001188BFF36F8F0423184602DF314620469D
:1017C00013F0C8FD0146204613F0BDFD864217D038
:1017D000E94688B06A465D4BCDE90538032342F8F7
:1017E000103F00234FF4C251574801F0B1FC0023D1
:1017F000CD4683F31188BFF36F8F0423184602DFB1
:101800003146204613F09FFD0146204613F0A2FD0D
:10181000864217D0E94688B06A464D4BCDE9053877
:10182000032342F8103F00234FF4C251464801F011
:101830008FFC0023CD4683F31188BFF36F8F042301
:10184000184602DF3146204613F05BFD8542814693
:101850002DD032D26369A0EB0509A3EBC90335444F
:10186000636131462A46204613F0C7FD0122314606
:10187000204613F04CFD294613F06CFD0122014671
:101880000646204613F027FDC3070CD431462046F8
:10189000FFF724FF3146204613F0D6FD3246294695
:1018A000204613F08CFD29462046FFF761FE4FF0DD
:1018B000010A5046BD46BDE8F0873146204613F088
:1018C00049FD012201468046204613F004FD10EA3E
:1018D000020A34D14146204613F013FD48448542A4
:1018E000E7D86369A269A5EB090503EBC5039A4232
:1018F0002CBFA261A361636141462046FFF7EEFE63
:101900004146204613F0A0FD4146204613F0F9FC65
:10191000854209D24544414620462A4613F06DFDD2
:1019200029462046FFF724FE42463146204613F062
:1019300046FD01223146204613F0E9FCB7E74FF09F
:10194000000AB6E7CCE201102CD60110F0E201103B
:1019500019E301102DE9F8430E4600AF002900F00D
:10196000AA8004680122204613F015FD01460546B1
:10197000204613F0B0FC10EA020816D1E94688B000
:101980006A464E4BCDE90536032342F8103F4FF42B
:10199000C25143464A4801F0DBFBCD4688F311882B
:1019A000BFF36F8F0423184602DF2946204613F049
:1019B000D1FC0146204613F0C6FCA84217D0E846E9
:1019C00088B06A463F4BCDE90536032342F8103F05
:1019D00000234FF4C2513A4801F0BAFB0023C54638
:1019E00083F31188BFF36F8F0423184602DF294663
:1019F000204613F0A8FC0146204613F0ABFCA84299
:101A000017D0E84688B06A462F4BCDE90536032348
:101A100042F8103F00234FF4C251294801F098FBCF
:101A20000023C54683F31188BFF36F8F0423184644
:101A300002DF00222946204613F069FC294613F0F4
:101A40009DFC636929461B1A6361204613F082FCE2
:101A5000012201460646204613F03DFCC2070CD485
:101A600031462046FFF73AFE3146204613F0ECFCA3
:101A700032462946204613F0A2FC2946204613F0A0
:101A800062FC012201460646204613F024FCC307EF
:101A90000DD431462046FFF721FE3146204613F093
:101AA000D3FC2A463146204613F089FC35462946A8
:101AB0002046FFF75DFDBD46BDE8F88340E3011019
:101AC0002CD60110F0E2011019E30110B2F5802FBD
:101AD0002DE9F04110D2042A28D8434940F2E323EB
:101AE000424A434813F009FE424813F006FE40F212
:101AF000E3213E4813F0F8FD0823D21ACC1D11440F
:101B000024F0070421F00701091B27294FEAD10718
:101B10000ED839494FF43B73344A354813F0EDFD84
:101B2000344813F0EAFD4FF43B71E2E70423E4E7A5
:101B300000250460C4E90355C4E90555A76000F019
:101B40005FF83946204613F030FC820002F1270688
:101B5000A168F608731CB1F5004F28BF0133BB42E2
:101B60000CD9264940F20233204A214813F0C5FD22
:101B7000204813F0C2FD40F20231BAE72946043290
:101B800004F11C001AF080FF32462946204613F06B
:101B9000D6FB2B462A462946204613F0A7FBA7EB87
:101BA000060820462946012213F0B1FB4246314681
:101BB00013F0C5FB33462A463146204613F096FB08
:101BC0003946204613F0BBFB43462A463946204699
:101BD00013F08CFB39462046012213F098FB314666
:101BE000BDE8F041FFF7C4BCC0E3011065E301109C
:101BF0001BE20110E1E30110FAE3011023E40110FC
:101C0000034638B1064A106838B901211160054A07
:101C1000136070476FF0150070476FF00B0070474E
:101C2000300E00202C0E00202DE9F04F91B00093D3
:101C300002F004030293C2F3C20301338407054692
:101C40000E46DDF868A00392059340F0C881041D9C
:101C5000002837D101F00706341DC6F10806009BA5
:101C60004FF0000804275A1E4FF0FF33C14601937E
:101C7000C3463B46CDF810800DB100982060059812
:101C8000002800F3BF809C480099814203D39B4801
:101C90008142C0F0B7800399601B11F0020C40F044
:101CA000CA80B9F10F0F40F2C980954940F28123F3
:101CB000944A954813F021FD944813F01EFD40F21C
:101CC0008121B5E00729CAD86FF01B0011B0BDE82B
:101CD000F08F7A285AD84B280FD8472856D8292869
:101CE0002DD825284FD051D8202818BF23280CBF25
:101CF0004FF0010B4FF0000B6EE04C382E2845D80A
:101D0000DFE800F06A4444444444444444444444C6
:101D1000474444444444444444544447475454543A
:101D20006A4768446A4418471844447B79474444E6
:101D30004744790000204FF0000B042734E00121D4
:101D40002A38C0B201FA00F010EA0E0F44D110F0A8
:101D5000625C2BD110EA010B3ED06046013C3C4452
:101D6000B4FBF7F47C4325B1A3EB050CA444B445C4
:101D7000AAD8002800F096800598013805905AF8F6
:101D8000040B009078E70199013901914FF0000BA5
:101D900022E012F8010C6C2831D1002012F8023C2C
:101DA00083466C2BC9D108273B46D7E70AF1070ABF
:101DB0002AF0070A0734BAEC027B24F0070435B195
:101DC00006982044B0423FF67FAF84ED007B4FF091
:101DD000000B083408273B4612F8010F00287AD080
:101DE000BBF1000F7FF475AF2528F5D14FF0010B43
:101DF000019B013301930427EDE758469BE7002040
:101E00008346ABE7039988072FD54FF0010C601B81
:101E1000B0F5007FFFF445AF39494FF41F73394ADD
:101E2000394813F06AFC3A4813F067FC4FF41F710D
:101E3000344813F059FC4FF0000CE9E705B309F101
:101E400040010DEB010E0199C0F387000EF8200C44
:101E50000EF8101CBCF1000F0ED060F07F000EF8E1
:101E6000200C08F1010809F10109C5F108014FF63C
:101E7000DA7E04340691AFE7049801300490F2E76B
:101E8000BCF1000F01D00136EDE7029902360029BE
:101E9000E9D10098CDE90632FEF794FCDDE906327F
:101EA0000644E0E7042B08D10AF1040015B1DAF882
:101EB00000102160824604348EE70AF1070323F004
:101EC000070303F1080A1DB193ED007B84ED007B4D
:101ED0000823083480E7631BB3F5806F1CD30849DF
:101EE00040F2D223074A084813F007FC094813F0D0
:101EF00004FC40F2D2219BE774D00110B41E021002
:101F00003C0E021056E401101BE20110A5E4011082
:101F100084E40110BFE401101DB9A6F10804E01823
:101F2000D4E6029A9B0828602B709DF81030BAB155
:101F3000EB7085F80280B8F1000F05D0002208A8E8
:101F4000C5F1010791450DD14FF0000AC5F101031C
:101F500008AF01930DF1300BD14512D1601BB5E6EE
:101F60006B70E6E710F8013B190608D507EB040C87
:101F7000B44503F07F033FF6A7AE04F8013B0132FE
:101F8000E0E7B8F1000F03D097F90020002A16DB34
:101F9000029BC3B11AF80B2004F8012B0022019B0D
:101FA00018191044B0423FF68FAE3878009904F803
:101FB000010B204603921AF05AFD039A14440AF1C9
:101FC000010A0137C8E73A7855F822300093029B9E
:101FD000009845F82230FEF7F5FB421CDFE76FF072
:101FE0000D0073E62DE9F04F95B000AF8A46054627
:101FF000C7E9083258B99B4940F299339A4A9B483D
:1020000013F07BFB40F29931974813F06DFB49B90F
:1020100003784678807800EB83002844564521D821
:10202000A0EB050ABB6F95F8028003F00103BC6FBB
:102030003B61EB78B8F1000F0CBF002404F0010401
:10204000FB6113B1BB6F9E0715D4A4B97B6A1BB1AA
:10205000514628463A6A9847564630465437BD4658
:10206000BDE8F08F441C2046FEF7ACFB0130204455
:102070000AF1010AD2E7BB6FC3F3C0037B612B787F
:10208000FB609B007B606B68BB60FB6805EB830BB0
:102090007B6A002B71D15646D844ACB11C461BF864
:1020A000013B55F82300FEF78DFBFB6F01303BB180
:1020B000D7F88030A34282BFFB6F23F814000134AD
:1020C000C3450644EBD1D846BB6F4FF0000913F06F
:1020D000050F0CBF4FF0020B4FF0010BFB69994548
:1020E000BBD298F8013008F1020855F823A0604BE4
:1020F0009A45C0F082815F4B7A699A452CBF0023D4
:1021000001230AB318F8021CB8687B6213F0BEFA08
:102110007B6AC8B1EA468AB06A46574B0593BB68EA
:10212000CDE906314FF40073ADF82030534B42F83F
:10213000103F00234FF41251514801F009F8D546E1
:10214000023E09F10109C9E723B13B692BB9A6EBAE
:102150000B06F6E7BB6F9807F3D55046FEF732FB48
:10216000FB6F43B1D7F880309C423FBFFA6F431CEE
:1021700022F8143001340644E3E7002C66D1B8F1AC
:10218000000F69D0BB6F590769D5C14607F1400000
:10219000424659461AF06BFC0BEB0803BB61002367
:1021A000DFF8D0E0FA6993426CD3BA6F95F801B0CA
:1021B0003969920704EB0B0348BF0022DBB258BF1A
:1021C0004FEA5902002940F0E280B96F11F0040F84
:1021D00014BF494600216B70A970EA7028463A6A1C
:1021E00079687B6A9847061EFFF637AFFB68494659
:1021F0002B70FB693A6AEB7085F801B07B6A85F851
:10220000028007F140009847B0F10009C0F2F18068
:102210007B68FA69B86903EB420141443A6A7B6A18
:10222000AAEB010198470028C0F2E5804FF0000BAF
:10223000B14409EB000607F1300AA345C0F0A980BC
:1022400000213A6A08467B6A984706E744464FF001
:10225000000907F130009BE74446C1469CE7A146D0
:102260009AE700BFD6E4011056E401101BE201100A
:1022700074D00110B41E0210F1E40110040000013A
:10228000DCD50110B869634A10F8021B10F8016C24
:10229000B86155F826009042C0F0B5807A69704563
:1022A0002CBF4FF0000B4FF0010B3AB1B8683B6008
:1022B00013F0ECF93B68DFF870E160BBBBF1000F95
:1022C0002BD03A695AB10F2C36D9534940F24343C7
:1022D000524A534813F011FA40F2434194E6BA6F60
:1022E000520718D5B9F10F0F09D94E4940F24643AC
:1022F0004A4A4B4813F001FA40F2464184E609F19C
:10230000280207F1280009F1010102EB000909F890
:10231000106C5FFA81F9013344E7BA6F900715D565
:102320000F2C09D93C4940F24D433C4A3C4813F03C
:10233000E4F940F24D4167E604F1280207F1280074
:10234000611C141804F8206CCCB2E4E7B9F10F0F4B
:1023500009D934494FF48A63304A314813F0CDF932
:102360004FF48A6150E609F1280207F1280C09F1BF
:102370000100944407F1500209F1020952FA80F079
:102380000CF8101C5FFA89F900F8106CC3E7002103
:1023900021E71BF80A3055F8239087F82F30FB6FA0
:1023A00023B3D7F880309B4520D2FB6F33F81B80D6
:1023B00001213A6A7B6A07F12F00984700281ADB4F
:1023C0000644B8F1000F06D14846FEF7FBF900F1CC
:1023D00001081FFA88F8414648463A6A7B6A9847DE
:1023E000002808DB06440BF1010B26E74FF000083C
:1023F000DEE74E4631E606462FE67B69002B3FF4CA
:10240000A9AE00237EE67A69002A86D04FF0000B41
:102410004CE700BF74D0011094E5011056E40110A0
:102420001BE20110B3E50110B41E0210014B18604D
:10243000704700BFB400002080B505460E46174621
:10244000984610F04BFB034601F0A6FFDFF85090D2
:10245000044649F80030424639463046A8470B4BFF
:102460001B7873B90A4940F246330A4A0A4813F006
:1024700044F90A4813F041F940F24631054813F097
:1024800033F954F8090001F009FF00BF71910020F1
:102490000FE60110E4E501101BE2011022E6011035
:1024A0000800000038B50D460446202200211AF02D
:1024B000EBFA0022EB68E361AB68A3612B6823624F
:1024C0006B68A26263622A6923B1591E194208BF70
:1024D00042F0010222610122002104F12C001AF0D5
:1024E000EDF948B1054906482F23064A13F005F9CE
:1024F0002F21044813F0F8F838BD00BF6AE6011038
:102500001BE2011044E601102DE9F04F002789B0CD
:10251000CDE90123436A04468B428846BA460597B3
:10252000079754D300F11406EFF31185102383F3BA
:102530001288BFF36F8F3046A94610F04DFD58B991
:1025400084234D4A4D494E4813F0D7F831464D4843
:1025500013F0D3F8842163E0304610F061FD079A50
:102560002AB13946204613F0AEF90023079306A995
:10257000204613F0CFF806998346414530D32268B0
:10258000236A204613F8221003EB820A21F003018C
:1025900003F822102168424613F0E0F8E368206057
:1025A000984218D04FF0000B304610F023FD50B386
:1025B00089F31188BFF36F8F059929B1A2690AB118
:1025C0002046904700230593BBF1000FACD1504645
:1025D00009B0BDE8F08F236943F008032361E1E708
:1025E00018B1204613F0D4F8DEE7DDE901321343D9
:1025F00039D003911AF090F90399A0BB9DBB3046E6
:1026000010F0F8FC78B94FF499731B4A1E491C4826
:1026100013F073F831461D4813F06FF84FF49971B9
:10262000154813F061F885F31188BFF36F8F04F13B
:102630002C00DDE901230EF0A1FF8346EFF31189A1
:10264000102383F31288BFF36F8F304610F0C4FC61
:1026500000283FF475AFBBFA8BFB304610F0E0FC6E
:102660004FEA5B1BA0E7204607AB05AA276813F0DB
:10267000AEF8834698E700BF73E60110A0E60110AC
:102680001BE20110B5E60110CBE60110E2E60110F5
:102690002DE9F0410446C36908460E46984704F107
:1026A00014050746EFF31188102383F31288BFF354
:1026B0006F8F284610F090FC68B984231A4A1B4992
:1026C0001B4813F01AF829461A4813F016F884210B
:1026D000154813F009F8284610F0A2FC33783A4662
:1026E00043F0010333706168204613F037F86060EF
:1026F000204613F003F9284610F07CFC68B94FF42B
:102700009973094A0C490A4812F0F7FF29460B4809
:1027100012F0F3FF4FF49971DAE788F31188BFF3F1
:102720006F8FBDE8F08100BF73E60110A0E60110D5
:102730001BE20110B5E60110CBE60110E2E6011044
:102740002DE9F0470446002700F11406EFF3118845
:10275000102383F31288BFF36F8F304610F03CFCD8
:10276000054668B98423394A39493A4812F0C5FF09
:102770003146394812F0C1FF8421344812F0B4FFC9
:10278000304610F04DFC2369A168180702D4636835
:102790008B4200D2636A5B1A002B41D0206A10F88A
:1027A000213000EB810913F003023CD0022A04D14E
:1027B00050F821205FEA920A05D1DA0720D4484672
:1027C000E36998478246A1685246204612F0C6FF48
:1027D0005146A060204612F0CFFF2F46304610F041
:1027E00009FC10BB4FF49973184A1C49194812F0A0
:1027F00084FF31461A4812F080FF4FF49971BCE70C
:1028000043F0020300F82130E3694846A568984781
:1028100029460246204612F0A1FF0025A060DDE710
:102820001D46A946DAE71546FBE788F31188BFF392
:102830006F8F002D8AD137B1B9F1000F03D104F1A8
:102840002C000EF01DFE4846BDE8F08773E601102F
:10285000A0E601101BE20110B5E60110CBE6011065
:10286000E2E601102DE9F0410446C36908460D4631
:10287000984704F114060746EFF31188102383F3F9
:102880001288BFF36F8F304610F0A6FB68B984231F
:10289000274A2849284812F030FF3146274812F0CD
:1028A0002CFF8421224812F01FFF304610F0B8FBA5
:1028B0002B7823F001032B7023699B0705D5E26871
:1028C000236A03EB82039D4222D12B7823F002037B
:1028D0002B70D4E90231994204D13A46204612F0D5
:1028E0003DFFA0603946204612F046FF304610F00A
:1028F00081FB90B94FF499730D4A11490E4812F0BB
:10290000FCFE31460F4812F0F8FE4FF49971C9E70A
:102910002B6867F39F032B60E8E788F31188BFF308
:102920006F8F04F12C00BDE8F0410EF0A9BD00BF8F
:1029300073E60110A0E601101BE20110B5E60110DC
:10294000CBE60110E2E6011070B5044600F1140573
:10295000EFF31186102383F31288BFF36F8F28469D
:1029600010F03AFB68B984231A4A1B491B4812F03D
:10297000C4FE29461A4812F0C0FE8421154812F000
:10298000B3FE284610F04CFB2369A0681B0702D455
:102990006368834213D2646A241A284610F02AFB23
:1029A00078B94FF499730B4A0E490C4812F0A5FE02
:1029B00029460D4812F0A1FE4FF49971DEE71C1A6A
:1029C000EBE786F31188BFF36F8F201E18BF01203D
:1029D00070BD00BF73E60110A0E601101BE20110FC
:1029E000B5E60110CBE60110E2E6011008B558B9D2
:1029F0000749084840F23513074A12F07EFE40F2BC
:102A00003511054812F070FE4368587908BD00BFC3
:102A10003EE701101BE2011006E7011010B548B9AE
:102A200008490948A023094A12F067FEA021074877
:102A300012F05AFE03681B6913B1BDE81040184735
:102A4000184610BD3EE701101BE2011006E7011019
:102A50002DE9F843044606460127DFF8408094FA42
:102A6000A4F5B5FA85F507FA05F308EB05156FEA45
:102A7000030924EA03042B7B5BB12846FFF7CEFF52
:102A800038B96B6804222846196806EA090612F06C
:102A900084FF002CE3D13046BDE8F88374D60110E2
:102AA00010B5002288B00E490E4819F0C9FF002267
:102AB00000230024CDE906230E234FF40062CDE964
:102AC0000334CDE90144084B0849009408480FF04D
:102AD000ABF8084906480FF01BF8204608B010BDB7
:102AE000D52B0010D00900200D2F00107899002060
:102AF000E804002055E701102DE9F047DFF8D090F9
:102B00002C4C8046A9EB04038F2B0F460BD92A4986
:102B100040F25313294A2A4812F0EFFD40F25311B4
:102B2000264812F0E1FD274812F013FF064660B375
:102B300000252846BDE8F087237B8BB12368DB683E
:102B40000BB1204698476368204683F806A0FFF73C
:102B500065FFB0B9636804222046196812F01DFFB2
:102B6000013610344C4514D9174940F25F13134A0B
:102B7000134812F0C2FD154812F0BFFD40F25F117C
:102B8000CEE70AFA06F31D43EAE705464FF0010ACD
:102B9000E8E7D1D3B8F1000FCBD0002DC8D028463C
:102BA000FFF756FF0546002FF7D0002164200FF0F5
:102BB00009FFF2E774D601108AE701105DE7011002
:102BC0001BE20110480E0020BAE70110DBE70110FC
:102BD00094D6011001480EF053BC00BFC80300207A
:102BE000014B53F82000704794D9011008B50346F3
:102BF00008462BB1044A136000F08AFD002008BD8E
:102C00006FF01500FBE700BFB800002010B5044CC2
:102C1000237813B903480EF033FC0123237010BD51
:102C20004C900020C803002010B50446094812F05B
:102C300090FE3CB1084BD3E8EF1F0139C3E8E21F17
:102C4000002AF8D1054810F0B9FDBDE8104004484D
:102C50000EF016BC400E0020440E0020D0090020CB
:102C6000C80300200022044BD3E8EF0FC3E8E12F94
:102C70000029F9D1704700BF400E002070B5FFF762
:102C8000F1FF0546104C114EB4421AD9104940F2DA
:102C90001623104A104812F030FD104812F02DFD96
:102CA00040F216210B4812F01FFD2046FFF79EFE52
:102CB00028B123685B6813B1294620469847103431
:102CC000E2E7F2D370BD00BF74D6011094D60110B4
:102CD000BAE701105DE701101BE20110DBE701100C
:102CE00010B5044C04492046FFF7DCFB034B1C6085
:102CF00010BD00BF7003002080D90110340E0020E9
:102D00000023154A10B51370144A4FF47A711360FA
:102D1000134A14481360FFF769FFFFF7E1FF124BF6
:102D2000124918468B4215D9114940F22B13114A0A
:102D3000114812F0E2FC114812F0DFFC40F22B11B6
:102D40000C4812F0D1FC1A1A5C681211013222717F
:102D50001033E7E7F7D310BD4D900020400E002060
:102D6000440E00206559011074D6011094D601104C
:102D7000BAE701105DE701101BE20110DBE701106B
:102D80000146002200230148FFF7BEBB700300206C
:102D90000148FFF7D5BC00BF70030020024B01467D
:102DA0001868FFF75FBD00BF340E00200148FFF731
:102DB000CBBD00BF7003002070B52D4B1B78002BDE
:102DC00054D0FFF7E5FF044600283FD1294B2A4D98
:102DD0001B68002B12DD19F031FE0A220023FDF7DB
:102DE000C5FCD5E90032C01A40F2E93361EB0201BB
:102DF000984271F1000101D3FFF740FFD5E900329D
:102E000013F57A7342F10002C5E9003274B3BDE8EC
:102E10007040FFF7CBBF2846FFF7E8FD20B12B68D5
:102E2000214628461B6898471035B54211D91349E9
:102E300040F20A23124A134812F05FFC124812F0C3
:102E40005CFC40F20A210E4812F04EFC0F4D104E71
:102E5000EBE7E0D32046FFF7A1FF0E4BD3E8EF1FCF
:102E60000139C3E8E21F002AB0D0F7E7002070BDA7
:102E70004C900020400E0020C8090020BAE7011045
:102E80005DE701101BE20110DBE7011074D60110B1
:102E900094D60110440E002070B5154D297831BB31
:102EA0000120FFF729FE134C134EB44218D91349E1
:102EB00040F2CF13124A134812F01FFC124812F0CE
:102EC0001CFC40F2CF110E4812F00EFC2046FFF71A
:102ED0008DFD18B1236820469B6898471034E4E7BD
:102EE000F4D3FFF769FF0028FBD101232B7070BDDD
:102EF0004D90002074D6011094D60110BAE701104D
:102F00005DE701101BE20110DBE701102DE9F8433A
:102F1000374F384BFB1A1B090AD137494FF46F73EF
:102F2000364A374812F0E9FB4FF46F71334819E025
:102F300000210846FFF7E0FD0446A8B14FF4FA78F7
:102F40004FF000092F4B1B789BB92F4940F24633B5
:102F50002E4A2B4812F0D1FB2D4812F0CEFB40F246
:102F600046312A4812F0C0FB4FF0FF384FF0FF39CE
:102F7000E8E701F011FA274B274A1B58136033B1D9
:102F8000264B1B68092B02DD25480EF079FA002537
:102F900044B12046FFF75CFD044618B94FF0FF38F6
:102FA0004FF0FF39FFF708FF064628B935B91C482E
:102FB00042464B460EF0E2FA3546E9E70D4D08E091
:102FC000F5D22B689B691BB1002228461146984711
:102FD0001035BD42F4D913494FF46C73074A0848C1
:102FE00012F08BFB104812F088FB4FF46C719DE7D8
:102FF00094D6011074D60110FAE701105DE70110B4
:103000001BE20110719100200FE60110E4E50110B0
:1030100022E60110080000003C0E0020440E0020B3
:10302000C8030020BAE70110DBE7011013B52C48F4
:1030300012F08FFC2B4B1B78002B35D0EFF3118453
:10304000102383F31288BFF36F8F27480FF0C4FF5C
:1030500068B98423254A2649264812F04EFB2249A6
:10306000254812F04AFB8421204812F03DFB1E48FF
:103070000FF0D6FFFFF7A0FE1B480FF0BBFF68B9AB
:103080004FF49973194A1D491A4812F036FB164934
:103090001B4812F032FB4FF49971E5E784F3118875
:1030A000BFF36F8F02B010BD164B1B68002BF9D019
:1030B00050B9002200231448CDE9002342F21072D7
:1030C000002310F00DFBEDE70928EBD10E4810F0BE
:1030D00075FB0E4802B0BDE810400EF0D1B900BF3C
:1030E000440E00204D900020380E002073E60110A1
:1030F000A0E601101BE20110B5E60110CBE60110BD
:10310000E2E601103C0E0020D0090020C803002098
:1031100010B5064B04461B6898472146A06004483A
:10312000FFF7B6FABDE81040FFF780BFB8000020F7
:1031300070030020044A054B9B1AB1EBD30F34BF38
:1031400052F8310000207047D4D5011074D6011018
:103150002DE9F04F8FB0C1F34A2604AF0D469046DB
:10316000B8607B600C0D002E66D04FF000090A237A
:103170004FF0040B07F1140AFE60C7E90799C7F87E
:1031800024900093CDF808B0CDF804A007F11C03FB
:103190004A464046F968FEF725FFB0F5006F034642
:1031A0001CD36C468AB0D8F8041004AB2B481A46DE
:1031B000C3E9050140F2FF71D9614FF40071198430
:1031C000274B42F8103F4FF412514B462548FFF76A
:1031D000BFFFA5462C37BD46BDE8F08FC0F30A06F9
:1031E00004F11700184420F0070080083B60FFF747
:1031F000C7FD66F35325044630B33B6800F1100168
:10320000C7E908390A23F961CDE901AB00934046CB
:10321000154AF96807F11C03FEF7E4FE002813DAEB
:103220001249134840F24913124A12F066FA40F26A
:103230004911104812F058FA04F1170020F0070065
:103240008008FFF79DFD044666F353252A46204675
:103250007B68B96812F0C1FBBCE700BF23E801102E
:1032600004000001F4D50110AD5901108FE80110E0
:103270001BE2011062E801102DE9F04F87B005460E
:10328000DDE9106BDDE9127A8846144699462FB3C2
:103290003B465A4610210020CDF800A0CDF814A0DE
:1032A000FEF7C2FC00280BDA27494FF4B473274A13
:1032B000274812F022FA4FF4B471244812F014FA9D
:1032C000B0F5006F01460BD340F2FF730221214A93
:1032D000214807B0BDE8F04F12F0D8BB3946384658
:1032E00004F0070305F00704E40044EA831444EA09
:1032F000402444EA065406F11700084420F0070071
:1033000080080391FFF73CFD0546A0B19FB13B4605
:103310005A460399CDF800A01030FEF785FC00282E
:1033200009DA094940F28D13084A094812F0E5F913
:1033300040F28D11C1E74B4622464146284607B070
:10334000BDE8F04F12F049BB8EE8011062E80110B1
:103350001BE2011098E80110F4D50110406820B17B
:10336000034BC01A40F3CF0070474FF0FF30704757
:10337000D4D501100EB403B503AB53F8042B0146AA
:103380000448019301F020F802B05DF804EB03B0AB
:10339000704700BFB5330010CA0605D48B064CBF7A
:1033A00002490349FFF7E6BF704700BF7A100210D9
:1033B000D0E8011038B54B6805461A68CB680C4652
:1033C0009A4202D1084612F085FB6368D3E8EF2FDA
:1033D000511CC3E8E01F0028F8D1A3689D5463681E
:1033E0001A68E3689A4209D9054906487223064AD1
:1033F00012F083F97221044812F076F9002038BDEA
:1034000002E901101BE20110D3E801102DE9F04F91
:1034100089B099469DF85080159B044606930D4649
:10342000DDE916A3189F05920493B8F1000F00F090
:10343000A180B8F1040F0BD987494FF41573874A5F
:10344000874812F05AF94FF41571844812F04CF97C
:1034500007F48073079312F09EFA07F0020B0246FE
:10346000002856D020467F49FFF784FF0646BBF16F
:10347000000F08D017F0440F4DD12A4620467A4954
:10348000FFF778FF064407F0010353B1774B20465E
:1034900053F82820764B7749002A08BF1A46FFF7D1
:1034A00069FF07F48073002B07F0080318BF4FF083
:1034B0000009002B5BD0704B204653F828206F4941
:1034C000FFF758FF0546059B2BB11A4620466C496D
:1034D000FFF750FF0544B9F1000F05D04A462046DA
:1034E0006849FFF747FF054467483544069B002BB2
:1034F00047D02246654912F098F8002841DA64491D
:1035000040F2B123554A564812F0F7F840F2B12183
:103510009BE70646ABE75F4B18680028B2D05E4BCE
:103520004FF47A7B1B684FF03C0CB5FBF3F5B5FB11
:10353000F0F14FF4616300FB11550BFB05F5B1FB96
:10354000F3F2B5FBF0FE03FB121100FB1E55B1FBBD
:10355000FCF30BFB05F5B5FBF0F50CFB1311204656
:103560000091CDE901E54D49FFF704FF8AE707F037
:103570000805A8E7B9F1010F45460CBF4248484885
:10358000B4E7049B002B52D0049B3946102B28BF74
:103590001023204699460026FFF7FEFEB54218DCB0
:1035A0000026334620461AF803203E49FFF7E2FE84
:1035B0000136102E13D0710703D120463A49FFF788
:1035C000D9FE4E453346EDD320463849FFF7D2FEAB
:1035D000EEE720463449FFF7CDFE0136DEE7002650
:1035E00020463349FFF7C6FE33461AF8032020462B
:1035F000A2F120035F2B28BF2E222E49FFF7BAFE2F
:103600000136102E0DD0720703D120462649FFF750
:10361000B1FE4E453346E8D320462349FFF7AAFEC4
:10362000EEE7049BCA44B3EB09030493ACD1B8F1B1
:10363000000F0AD0FB0704D520460D4A0D49FFF7BD
:1036400099FE39462046FFF7A7FE204609B0BDE89F
:10365000F04F12F03FBA00BF37E90110D3E8011074
:103660001BE2011042E9011046E90110A4D9011042
:1036700032E9011099010210B8D901106BE901106B
:1036800071E9011075E90110B5330010C94300104C
:103690007AE90110500E00204C0E00204FE9011075
:1036A000EF5A011083E901108BE9011089E901103B
:1036B0008DE901108FE9011042F20F7373B58B424F
:1036C00028BF0B4605680446052168460D4A10F0E0
:1036D0000DFA0646636828460B225B680A4912F019
:1036E000EBF963683246694628465B6812F0E4F9F4
:1036F00063681B2228465B68044912F0DDF902B0BA
:1037000070BD00BF68EB0110C3190210A7190210A9
:1037100000210123064A904206D8064A01B9012336
:103720001360054B18607047012140085B00F2E709
:1037300040420F004C0E0020500E0020F8B50D4600
:103740000446064F4618B44201D12846F8BD14F885
:10375000011BBB6801485B689847F4E780D1011002
:1037600010B543681C68094819F078F848B9084949
:1037700008489923084A11F0C0FF9921064811F022
:10378000B3FF23685B685C6010BD00BF80D101108F
:10379000E0E901101BE20110A2E90110014B002039
:1037A000196070478C0E00200148FFF785BF00BFED
:1037B0001CDA011010B5064B0C461868FFF710FA1A
:1037C0002146BDE8104003460F220248184700BFBB
:1037D0008C0E00201CDA0110F8B5074D074ED5E914
:1037E00000470CB92C60F8BD214630463A4612F02D
:1037F000F5F9241A0644F4E7800E00204F900020CB
:103800002DE9F8430646FCF7DDFF0546EFF3118886
:10381000102383F31288BFF36F8F24480FF0DCFB73
:1038200068B98423224A2349234811F066FF1F49BF
:10383000224811F062FF84211D4811F055FF1B48FA
:103840000FF0EEFB1E4B1C68D3F804909C4208BF9F
:1038500000248CB915480FF0CDFB00BB4FF49973D1
:10386000134A1849144811F048FF1049164811F03E
:1038700044FF4FF49971DFE7A7683846FCF7A2FFD1
:10388000A84206D12A463946304619F024F90028C4
:10389000E0D04C4501D02468DBE70024DAE788F368
:1038A0001188BFF36F8F2046BDE8F883900E00208B
:1038B00073E60110A0E601101BE20110B5E601104D
:1038C000C4000020CBE60110E2E6011070B504460A
:1038D00008B1806838B9244A2448012112F0CDF893
:1038E0006FF0150070BDFFF78BFF054608B1204A49
:1038F000F2E7A082EFF31186102383F31288BFF35F
:103900006F8F1C480FF068FB68B984231A4A1B4963
:103910001B4811F0F2FE17491A4811F0EEFE8421FF
:10392000154811F0E1FE13480FF07AFB164B1148D1
:103930005A68C4E9003214605C600FF05BFB68B940
:103940004FF499730C4A11490D4811F0D6FE0949FC
:103950000F4811F0D2FE4FF49971E1E786F3118818
:10396000BFF36F8F2846BDE729EA0110E4D50110A7
:1039700042EA0110900E002073E60110A0E601104B
:103980001BE20110B5E60110C4000020CBE60110D7
:10399000E2E6011008B50348034A0021121A12F0AA
:1039A00028F908BD0804002074910020074808B5D4
:1039B000074A0849121A12F01EF9BDE808400648E5
:1039C000064A0749121A12F016B900BF000000207B
:1039D00004040020B41E021000000020000000209B
:1039E000B41E02102DE9F84F80460C4600AF0029A6
:1039F00065D0D1E90012E9468AB0A3686D464FF060
:103A0000050A6E463748CDE90723CDE9050146F89A
:103A100010AF002332464FF421513348FFF798FB93
:103A2000D4E90312CD466369AD463048C5E90723A2
:103A3000C5E90501C5F810A0002332464FF4215115
:103A40002948FFF785FBCD46E3690121284A26482E
:103A500012F01CF8264600254FF00A0ADFF8A0B045
:103A6000E946D6E908C0D6E90A138EB06A46CDF811
:103A70001CC005F1010CCDE908C0A81CCDE90A0164
:103A8000E91CCDE905B5CDE90C1342F810AF0023D0
:103A900045F2400114480435FFF75AFB102DCD467E
:103AA00006F11006DCD1236E0121124A0E4811F0F6
:103AB000EDFFA3690121104A0B4811F0E7FFB8F1AF
:103AC000010F07D1EFF305830C4A41460648103B2E
:103AD00011F0DCFF214640460DF09CF8BD46BDE8E4
:103AE000F88F00BF6BEA011024D601109AEA01108A
:103AF000C9EA01101BEB01102AEB011058EB011071
:103B0000D8EA011030BFFFF7FDBF00BF2DE9F0413B
:103B100005460B4EDFF83080324606EB0807CC1B1B
:103B20002046084918F0A3FFA01942460021083C8E
:103B300018F0AAFFC5F8904007F10800BDE8F08131
:103B40000000000094D601100800000010B5244CBD
:103B50002449254812F067F8A36A99013ED5224806
:103B6000224912F060F81E20A36ADA0104D51E482B
:103B70001F4912F058F81F20194CA36ADB0204D524
:103B800019481C4912F04FF82020A36A1C0304D5E1
:103B90001548194912F047F82120114CA36A59031E
:103BA00004D51148154912F03EF82220A36A9A0361
:103BB00004D50D48124912F036F82320084CA36AA8
:103BC000DB0304D508480F4912F02DF82420A36A1E
:103BD0006FEA03436FEA1343A36210BD1D20C3E7DE
:103BE00000ED00E06BEB011024D6011083EB011017
:103BF00096EB0110B0EB0110DAEB0110F8EB0110BD
:103C00001DEC011037EC011070B506460D46334C23
:103C10003349344812F007F8A36AD9064DD5314824
:103C2000314912F000F81120A36A1A0704D52D4873
:103C30002E4911F0F8FF1220284CA36A9B0712D5D9
:103C40002B49284811F0EFFF636BA26A110609D5D2
:103C50000121284A234811F019FF1EB1A36A23F05D
:103C60008003A36213201D4CA36ADA0704D51D4804
:103C7000214911F0D8FF1420A36A9B0604D51948E6
:103C80001E4911F0D0FF1520144B9A6AD60602D4B3
:103C90009A6A940713D59B6AD90610D5184940F241
:103CA0002D13184A184811F028FD184811F025FD69
:103CB00040F22D11134811F017FD1020B4E7074B07
:103CC0009A6A920642BF5A6A22F400525A629A6A6B
:103CD00042F0FF029A6200232B7070BD00ED00E0FD
:103CE00062EC011024D6011078EC0110ABEC01104D
:103CF000BEEC0110D6EC0110ECEC01100BED011044
:103D00006CED01103AED01101BE20110B6ED01104F
:103D100070B506460D46284C2849294811F083FF06
:103D2000A36AD9043CD52648264911F07CFF172008
:103D3000A36A1A0504D52248234911F074FF1820FC
:103D40001D4CA36A9B0512D51D48204911F06BFF3D
:103D5000A36BA26A100409D501211D4A184811F06D
:103D600095FE1EB1A36A23F40043A3621920124CEE
:103D7000A36A590504D51248164911F054FF1A20B8
:103D8000A36ADA050ED50E48134911F04CFF1B202B
:103D9000094A936A43F47F43936200232B7070BDFA
:103DA0001620C5E7A36A9B04F2D505480B4911F01C
:103DB0003AFF1C20ECE700BF00ED00E01AEE011016
:103DC00024D6011030EE0110ABEC011041EE0110D1
:103DD0005AEE01106FEE01108AEE01100BED01108A
:103DE000F0B59DB0774B05465868002600AFC0F38C
:103DF000080386F31188BFF36F8F02F07F44B4F19C
:103E00007F4F07D102F00C04082C12D16E496F4885
:103E100011F009FF6E4940F21B436E4A6E4811F0E3
:103E20006CFC6E4811F069FC40F21B41694811F0CE
:103E30005BFC14074CBF0D460126002DEAD0002282
:103E4000FA71DA1E092A00F29C80DFE802F005927E
:103E500095759A9A9A9A9A9861495C4811F0E3FE8E
:103E60000023584CFB71E36A9A0705D55D49574812
:103E700011F0D9FE00242DE0E36A002B01DA5A4943
:103E8000F5E7E36A5B0067D55849504811F0CBFE6F
:103E90006369AA6943F480736361BFF34F8FBFF313
:103EA0006F8F32F8023C626922F480726261BFF364
:103EB0004F8FBFF36F8F03F47F42B2F55F4F24D172
:103EC000DBB2022B21D12B680121494A3F4811F076
:103ED000DDFD2C68FB79ABB96822294607F10800A3
:103EE00018F0C5FD7B6A002E68D0C3F3080222B922
:103EF0006FEA53236FEA43237B62204607F10801F0
:103F0000FFF770FD7437BD46F0BD2E4B9A6AD2B2F2
:103F10002AB10120F91DFFF777FE0446DAE79A6A15
:103F200012F47F4F04D00120F91DFFF7F1FEF4E7F2
:103F30009B6AB3F5803F02D3FFF708FEEDE72D49FA
:103F400040F2ED23234A244811F0D7FB2A4811F010
:103F5000D4FB40F2ED2169E726494FF43C731D4A3A
:103F60001D4811F0CAFB254811F0C7FB4FF43C7106
:103F70005CE70020F91DCEE70020F91DD5E72049B8
:103F800075E7204A6C4610F4F87F8AB01E4918BFC6
:103F900011466A46103B07934FF400731B48ADF877
:103FA00020301B4BCDE9050142F8103F00234FF4B0
:103FB00011510648FFF7CCF8A5465BE76FF30803FD
:103FC0009AE700BF00ED00E0D0EE011024D601100A
:103FD000FBEE01103AED01101BE201100EEF011093
:103FE0004CEF011063EF011084EF011092EF01100C
:103FF000B1EF01103C0E0210CDEF0110F1EF0110F6
:1040000021F00110B7EE0110A2EE011045F00110F1
:1040100004000001044B5A6942F010025A615A69C7
:1040200022F008025A61704700ED00E0EFF30880CB
:10403000EFF3098101B57246FFF7D2FE01BD00BF63
:104040000F4880F3088811F019FE102080F31188C2
:104050000C484FF0AA014FF4006211F0CAFD094864
:104060004FF40061401880F30988EFF314800221B7
:10407000084380F31488BFF36F8F00F065F80000E9
:10408000B8BA002078A100201EF0040F0CBFEFF397
:104090000880EFF30980816911F8021C0229FFD022
:1040A00001B5724611F0B4FD01BD00BF40B2002859
:1040B00007DB01234109034A00F01F00834042F857
:1040C0002130704700E100E038B54B1C0F2B04464F
:1040D0000D460FD96B23104A1049114811F00DFB02
:1040E000294610480F23224611F007FB6B210A488E
:1040F00011F0FAFA40B20028ACBF00F160400A4A61
:104100004FEA0313DBB2ABBF00F5614000F00F00D4
:1041100080F80033135438BD58F001108FF00110AF
:104120001BE20110AAF0011014ED00E0044B054A57
:1041300023F07F039360BFF34F8FBFF36F8F704700
:104140000002001000ED00E008B5FFF7EFFF104B94
:10415000D3F8882022F47002C3F88820D3F888208E
:1041600042F4A002C3F888204FF04042C3F8342242
:10417000BFF34F8FBFF36F8F0023E1EE103AFFF7CD
:1041800009FCFFF713FC00F0E9F80CF0A3FE00BFF8
:1041900000ED00E04FF47D41C0F8DC1042F8203C17
:1041A000009B0B4942F81C3C019B21F0010142F8A5
:1041B000183C029B42F8081C42F8143C4FF08073F4
:1041C00042F8043C0023203A0265C0F8943070475E
:1041D00039240010104B9B6883421AD1EFF30580FD
:1041E000B8B9EFF31181102282F31288BFF36F8FF9
:1041F0009A8922F002029A81EFF3148323F00403D8
:1042000083F31488BFF36F8F81F31188BFF36F8F2F
:1042100070476FF015007047FC0F00200E461546E2
:10422000002300B5E1EE103AEFF3148323F004030A
:1042300083F31488BFF36F8FBFF36F8F0A4BD0F8EF
:1042400090209860094B1A602C4686F3098800205C
:10425000034B98472046002100220023014C2047B1
:104260003B5C011039240010FC0F0020940E00204C
:104270001022014B1A61704700ED00E0054B9A696E
:104280009B689A421FBF044A536843F080535360AF
:10429000704700BFFC0F002000ED00E0084B9B685A
:1042A00083420BD1EFF3058343B1064B5A6842F0CA
:1042B00080525A605A6A22F400425A620EF014BCCC
:1042C000FC0F002000ED00E021498A6882F8DDE063
:1042D0004FF030001044EFF3098C80E8F01F1EF01F
:1042E000100F03D102F19C0080EC108A102080F3A3
:1042F0001288BFF36F8F174F4FF000668A698A608C
:104300003E60D2F89000144C206092F9DDE0D2F8C3
:1043100094000023C2F8943080F311881EF0100F2F
:1043200003D00023E1EE103A03E002F19C0090EC90
:10433000108AEFF3148323F0040383F31488BFF38C
:104340006F8F02F1300090E8F01F8CF309887047FE
:10435000FC0F002004ED00E0940E0020002310214B
:104360000348C2180133342B82F80013F9D1704787
:1043700000E100E008B5EFF30583064A103B02EBCD
:10438000C30152F8330049688847BDE80840FFF789
:1043900075BF00BFD0D2011001480068704700000F
:1043A000940E002008B5054905481B23054A11F065
:1043B000A4F91B21034811F097F900BF3C0E02102D
:1043C0001BE20110EAF00110F0B587B007460E4677
:1043D00014460021102268461D4618F055FB0223A2
:1043E0008DF80230054B2A4621466846CDE9047611
:1043F00001930FF0BDFD07B0F0BD00BF675C011079
:1044000008B5024B1B689847002008BD980E002095
:10441000034B044A1860937843F00203937070478B
:10442000980E0020CC00002008B5054811F04FF987
:10443000002383F31188BFF36F8F0423184602DF34
:1044400018F1011008B50649064821F00701C1F12D
:10445000202202F50022FDF739FB002008BD00BF35
:10446000CFC800209C0E0020827A2C20074B00FB36
:1044700002335B6A0846DB68032B94BF6FF00303CB
:104480005B42CA5C0132CA54704700BFD8030020A7
:10449000827A2C20094B00FB02335B6ADB68032B1A
:1044A00094BF6FF003035B42CA5CC818013AD2B2F2
:1044B000CA540AB918F0D0BA704700BFD803002018
:1044C0002C2210B50B4C837A02FB0344636AD86834
:1044D0000B6804282CBF1818181D0FF0DDFA38B12E
:1044E00001230370636ADB68042B2CBFC0180430FF
:1044F00010BD00BFD80300202DE9F843002343601E
:104500000223037240F20113438190F837300446CE
:10451000DA0700AF00F1040828D413F0020F0CBF33
:10452000032602264FF00109F6B241462068667361
:1045300084F8099011F0A4FB0546C8B16C4688B018
:104540006A461F4B05931F4B93614FF4007393838F
:104550001D4B42F8103F00234FF4E2511B48FEF779
:10456000F7FDA5462846BD46BDE8F8830126D9E7F4
:10457000206B11F0D4FB022341462068637211F0D6
:104580007FFB054630B16C4688B06A460C4B0593FC
:104590000F4BD9E7A4F86A002674206B11F0BFFB1B
:1045A0000C4B41462068636011F06AFB0546002809
:1045B000D8D0094A4946054811F05FFAD2E700BF52
:1045C0003BF101105CF101100300000134D6011031
:1045D00064F10110801A06006BF1011070B50546F8
:1045E0008AB0012011F09BFB0B26286811F087FB95
:1045F000044698B101211E4A1E4811F03EFA012CD2
:1046000011D1013EF1D11B4803211B4A11F035FAAB
:10461000286811F074FB044670B913E0284611F0C5
:1046200040FB0446EBE714F1740FECD03CB10121E0
:10463000124A104811F021FA20460AB070BD95F8D0
:104640004B303BB9284600F0F9FA041E18BF6FF052
:104650008504F1E73B220123CDE901231023CDE9B5
:104660000734C823286801A9099311F012FBD2E787
:1046700085F1011034D6011098F10110C9F1011033
:10468000F8B50D46002857D041F8280B83689B6980
:104690004BB19847044648B1294A0121294811F0F5
:1046A000ECF92046F8BD6FF05704F5E705F1140664
:1046B000304618F0FCF804460028F2D143F6982260
:1046C000002330460CF022FD044608B11E4AE4E700
:1046D0002846FFF711FF044618B1304611F0D7FA0B
:1046E000DFE72846FFF77AFF0328044614D10127A5
:1046F000284685F86870FFF7FFFE044628B1134A84
:104700003946104811F0B9F9E7E72846FFF766FF88
:10471000044648B10E4AF3E730B1304611F0B7FA1B
:10472000012385F86830BCE7022385F868303046FD
:10473000BDE8F84011F0ABBA6FF01204B1E700BF6A
:10474000DCF1011034D601100BF2011036F2011029
:104750004FF2011070B505460E4C286811F001FBB0
:1047600058B90B26284611F030FB01280ED1013E26
:10477000F8D1A4F5F414A4F590647D207D3C18F0E4
:104780005FF8002CE9DC6FF00F0001E00028F4D1A5
:1047900070BD00BF80969800372310B58AB0002204
:1047A00001931123CDE90732C8230904044602917D
:1047B000006801A9099311F0C6FAD0B9079B012B33
:1047C0000CD1039B0C4A1A4042B10C4802210C4AFE
:1047D00011F05CF96FF004000AB010BD94F84B3092
:1047E000002BF9D1039B13F0200F08BF6FF0850059
:1047F000F2E70120F0E700BF0880F9FD34D6011090
:1048000079F201102DE9F04114461E461A44036E58
:1048100005469A42884690B062D890F86930012BDC
:104820000AD10221304A314811F0A2FA6FF0850412
:10483000204610B0BDE8F08100F11407002338468F
:104840002B4A0CF063FC38B102212A4A274811F0A8
:104850008FFA6FF00F04EBE7012E14BF1223112320
:10486000B5F86A200490900748BF22460793B5F830
:1048700064304FF0110158BF03FB04F20892032289
:10488000CDE90D12C822CDE9014342F210730F9217
:10489000286801AA07A90396CDF81480069311F0A1
:1048A00052FA044670B101210346134A0F4811F031
:1048B000EDF80121114A0D4811F05AFA384611F06D
:1048C00082FAB5E72846FFF745FF04460028F5D0F1
:1048D00001210B4A054811F04BFA6FF07304E8E729
:1048E0006FF01504A4E700BFA8F2011034D6011040
:1048F000A0860100CBF20110E7F2011027F30110AE
:1049000004F301102DE9F04714461E461A44036EC5
:1049100005469A428A46A0B000F29D8090F8693020
:10492000012B0AD102214D4A4D4811F021FA6FF0B6
:104930008504204620B0BDE8F08700F1140700236D
:104940003846484A0CF0E2FB38B10221464A444856
:1049500011F00EFA6FF00F04EBE7012E14BF1923CC
:104960001823B5F86A200E93910748BF2246B5F880
:1049700064304FF0110958BF03FB04F20F92032279
:104980004FF0C808CDF818A042F2107ACDE9149281
:10499000059002AA28680EA9CDE90243CDF85880F7
:1049A0000496CDF81CA011F0CEF9002842D028467C
:1049B000FFF7D0FE014600284AD1182208A818F0B7
:1049C00063F82846B5F85E10FFF7E6FE044640BBE4
:1049D00016230422CDE917300123CDE91D90CDE93E
:1049E0000923089005F18C03286808AA17A9CDE9C6
:1049F0000C3ACDF87C8011F0A6F9044688B91D9BCD
:104A0000012B03D1194C199B1C4054B9D5F88C309B
:104A10001BBA0121164A1248009611F041F86FF0B6
:104A200004040121134A0E4811F0A2F9384611F08E
:104A3000CAF97EE72846FFF78DFE04460028F5D028
:104A400001210D4A064811F093F96FF07304E8E76D
:104A50006FF00F04E5E76FF015046AE7A8F20110A4
:104A600034D60110A0860100CBF201100880F9FDB8
:104A700038F301105AF3011004F301102DE9F0414D
:104A8000036E054693420E4690468AB077D39B1A32
:104A90008B4274D390F86930012B0AD10221394A34
:104AA000394811F065F96FF0850420460AB0BDE879
:104AB000F08100F1140700233846344A0CF026FB3D
:104AC00038B10221324A304811F052F96FF00F0428
:104AD000EBE70324C823CDE90843202301931123E6
:104AE0000793B5F86A3000229B0758BFB5F86430C9
:104AF000286858BF734301A9029658BF029311F06A
:104B000022F9044680BB2123019311230793B5F8B2
:104B10006A30013E980758BFB5F86430464458BF24
:104B200073434FF00002286801A9029658BF029310
:104B300011F009F90446B8B926230193222302464D
:104B4000029001A92868079311F0FDF8044658B9AE
:104B50002846FFF7FFFD044630B101210D4A0A48FF
:104B600011F006F96FF07304384611F02CF9002C9F
:104B70009BD00121084A044811F0FAF895E76FF03C
:104B8000150492E7A8F2011034D60110A0860100A6
:104B9000CBF2011004F3011067F301102DE9F0418D
:104BA00005460F46904600F11406002330461F4A82
:104BB0000CF0ACFA044638B102211D4A1D4811F030
:104BC000D7F82046BDE8F0817B1E072B2BD8DFE805
:104BD00003F0040B2A0E102A15252B6EC8F800309E
:104BE000304611F0F0F8ECE7B5F86430F6E7012351
:104BF000F4E72846FFF7AEFD0446F1E72846FFF745
:104C0000A9FD20B102210C4A0A4811F0B1F8012394
:104C100028686B72291D11F09DF8EDE74146284682
:104C200011F045F9E8E76FF08504D9E7A0860100A7
:104C3000CBF2011034D6011074F301102DE9F04FBE
:104C4000044697B01022002103A817F01DFF94F826
:104C50004B30002B00F0E4810021204611F042F996
:104C60000546A0BBB4F86A6084F8690006F008073E
:104C7000C6F3C006B607642017F0E2FD2923CDE98C
:104C80000D3614231393C823CDE914530021204675
:104C9000FFF782FD0128024623D0002840F0C7819B
:104CA00020680DA911F010F90246002840F0BF81DC
:104CB00094F84B20002F00F0B6810F9B5AB1D80713
:104CC0000BD43146204611F00DF90546D8B12846DF
:104CD00017B0BDE8F08F002B14DB642000210DF02D
:104CE00071FE0135B5F57A7FD0D10121B34AB448C0
:104CF00011F011F96FF07305B24A0121B04811F0BB
:104D00000AF9E4E7E364E36C2046590048BFB4F8CD
:104D10006A2003A944BF42F00202A4F86A20DA0123
:104D200042BFB4F86A2042F02002A4F86A209B0334
:104D300042BFB4F86A3043F04003A4F86A3011F07F
:104D4000B6F805460028C2D1204611F078F805468D
:104D50000028BCD1A36A9C4A934210D803219B4AE5
:104D6000974810F093FEA36A274647F8043F394658
:104D7000206811F0B0F8054618B1954ABDE7954B8B
:104D8000F2E7014624220DA817F07EFE29461822DC
:104D900007A817F079FE2046B4F85E10FFF7FCFC78
:104DA0000546002893D13323CDE90D301123139309
:104DB000C8230126CDE914030823CDE9083642F2C1
:104DC0001073206804F18C0907AA0DA9CDF82C9066
:104DD0000C9311F079F8054600287FF478AFD4F8E9
:104DE0008C2002F00F03B34249D0022B3FD0002B9E
:104DF00047D0560548BFB4F86A304FEA126144BF45
:104E000043F00403A4F86A30D00142BFB4F86A301A
:104E100043F48073A4F86A30890742BFB4F86A305B
:104E200043F08003A4F86A30B4F86A6016F0020612
:104E30002BD1314618220FA8D4F800A04FF40078E7
:104E400017F022FE1023CDE90D3811231393C82348
:104E5000324650460DA9159311F036F8064690B12A
:104E600001215D4A564811F056F835462FE712F4F5
:104E7000000F14BF0823042384F86630B9E7022327
:104E8000FAE73346F8E7A4F8648094F836309B06D6
:104E90007FF51DAF94F86630012B7FF618AFD4F87C
:104EA0005080B8F1000F3FF412AF94F85830002151
:104EB00013F0020FC3F340022368164684F86720FC
:104EC0000FA84FF018020CBF4FF0010B4FF0020B70
:104ED0000193D4F828A017F0D7FD1022002107A8CD
:104EE00017F0D2FD06220D9211221392C82246F02D
:104EF000004646F47F0646F47F4646F0F0060E96DE
:104F0000159201264022CDE9082642F2107201983E
:104F10000C920DA907AACDF82C9010F0D5FF814670
:104F2000002875D194F89C2094F8671002F00F02C5
:104F3000914259D00221294A214810F0ECFF94F8FF
:104F40004830002B3FF4C3AEB4F86A3058077FF501
:104F5000BEAE242200210DA817F096FD2046B4F81D
:104F60005E10FFF719FC064600BB06230D930123D4
:104F70001393C823CDE91403022302460DA9206828
:104F80000E9310F0A1FF064680B9139B012B03D1AD
:104F9000134E0F9B1E404EB9042339462068A3725E
:104FA00010F099FF064600283FF491AE01210D4A0A
:104FB000034810F0B0FF354630E000BFC3F40110E5
:104FC00034D6011090F301103F787D01A9F3011050
:104FD000DEF3011040787D0105F4011026F4011084
:104FE0000880F9FD85F401103946206884F80BB07B
:104FF000D04594BFC4F80480C4F804A010F06BFF3F
:10500000814600289BD00B4A31460B4810F083FFA5
:1050100001210A4A084810F07EFF4D46084A6CE616
:105020006FF0850553E6002A3FF46DAE49E615465C
:1050300062E600BF44F4011034D6011064F401109C
:10504000AFF4011038B500231549164CA14224D9FC
:1050500015493E23154A164810F04FFB154810F02D
:105060004CFB3E21114810F03FFB0A68934204D0EC
:1050700050694BB9038050694380506908314388B7
:10508000013343801346E1E75D69B5F902500580BD
:105090005B695069B3F90230EEE7E6D3002038BD12
:1050A00094D6011094D6011004F50110DEF401101D
:1050B0001BE20110DBE7011070B505460C4C0D4EEC
:1050C000B44211D90C490C230C4A0D4810F015FBC1
:1050D0000C4810F012FB0C21084810F005FB20468C
:1050E000A84718B11834EBE7F9D3012070BD00BF11
:1050F00094D6011094D6011073F501103BF5011000
:105100001BE20110DBE7011000210369426883F80C
:10511000CC105268C3F8D820034AC3E9372003F102
:10512000D000FEF7D3BB00BF54DA011037B5456895
:1051300004690021686801AA11F099F900280EDBC2
:10514000019B00221979186811F0A3F9002806DBE9
:10515000D5E9030183681B681BB96FF0570003B0E2
:1051600030BD98470028FADBD5E905018368DB6884
:10517000002BF2D098470028F1DBAB689847104A23
:105180001049936883F0807383F0070323F0704322
:1051900023F47F0323F47F4323F0F0038B60002389
:1051A0001361012313601368DB05FCD501239361B0
:1051B000A36C1BB904F140000CF062F90020CEE7AB
:1051C00000000A4000100A404FF40062836E10B5E0
:1051D000C0F89C30D0F894300424C0F898300D4BBF
:1051E0009A604FF480629A609C601A60D0F89C20AC
:1051F00092FAA2F1002AB1FA81F108BF4FF0FF3113
:10520000054A126882EA0132044902F470420A60D7
:105210001C6010BD00200A4000000A4000100A4037
:1052200008B540680A79007802F01F03984207D851
:1052300001210F4A0F4810F029FC6FF0850008BDCE
:105240004B883BB10C4A0B48012110F016FC6FF063
:105250001500F4E712F0200005D00121074A0548A7
:1052600010F00BFCE9E70B78092BE8D0044AEAE7D9
:10527000A6F50110D4D50110C2F50110E0F501101A
:10528000FEF50110F7B5066904460D4640364FF0AD
:10529000FF324FF0FF3330460CF070F92B7C626820
:1052A000591E0B2924690CD9394A0121394810F0BB
:1052B000EDFB6FF0850430460CF0E2F8204603B0B9
:1052C000F0BD6B6812783BB1B3FA83F1C1F12001F4
:1052D000914201D9304AE8E70121013A9140002288
:1052E0000B421CBF0132D2B24908F9D153002A68DF
:1052F00012B1928902FB0333EA689A4213D3AC4697
:10530000AB6804F16407C4F89430BCE80F000FC721
:10531000DCF800303B60002727662B685BB920462D
:10532000FFF752FF28E001211C4A1A4810F0A5FBA4
:105330006FF00B04BFE704F178050FCB85E80F0091
:105340006566A4F888700028E9D0D4E8EF3FC4E887
:10535000E27F002AF9D1A06F642263304FF000038E
:1053600047F10001FBF702FA0022CDE9000100231A
:1053700004F108000EF0B4F94FF0FF324FF0FF33A4
:1053800004F150000CF0FAF800B12066246E92E7A8
:1053900010F60110D4D501102AF601104FF60110B5
:1053A00070B5354A04695168136889B2C3F3033391
:1053B0009568EE050BD51568AD050AD56FF00403A9
:1053C000236604F15000BDE870400CF059B8D56870
:1053D000EEE7D4F89450AE1CC4F894602980012103
:1053E0009940D4F89C3023EA0103C4F89C30A3BB55
:1053F000636E002BE5D0E36F43B1B4F8882004F16D
:105400006401984701280BD002281ED0B4F88830D8
:10541000B4F884209A4218D90133A4F8883003E004
:10542000D4F89830C4F89430A36F23B92046BDE86F
:105430007040FFF7C9BED4E8EF3F5A1EC4E8E12F21
:105440000029F8D1012BF1DC70BDA36F002BB8D07F
:1054500004F108000EF0B2F9B3E793FAA3F3B3FA3C
:1054600083F3126882EA0333044A03F4704313603F
:105470000422034B1A60E7E700000A4000100A40CC
:1054800000200A400B2936D8DFE801F006060606A0
:105490000F1B24352A2A3A3A0C22514303681A4A30
:1054A0005B58C3F34313D0567047184B1A6B1B6BF2
:1054B00013F0030322D0022B22D0C2F34313144A69
:1054C000F1E7124AD36BD26B92071BD0114AC3F398
:1054D0004313E8E70D4B104A9B6CC3F34313E2E719
:1054E0000C23594301F1804101F580310B680B4ACF
:1054F000C3F34313D7E74FF0FF3070470E207047D8
:105500000C20704704207047E5190210000001408C
:10551000E2190210DC190210D5190210CF1902107D
:10552000F8B507460C467D68214628463E6910F0CE
:10553000DAFD00286ED00E2C6CD8DFE804F00B0BDF
:105540000B0B0B0B2E6B0B0B3434086368009FEDB9
:10555000330AF8BD214628462E68FFF793FF01461F
:105560003846FFF7DDFF0C2303FB046253685268E3
:105570009FED2B6A92B207EE902AF8EEE77A1B0CA9
:1055800087EE867A07EE903AF8EEE77AF0EE406A18
:1055900077EE277A86EEA70ADBE706212846FFF793
:1055A00071FF0446BFE72146D5E9023628460A2C9A
:1055B00008BF1E46FFF766FF01463846FFF7B0FFFB
:1055C000D6ED027AF8EE677A316827EE800A01F0AC
:1055D0003F0107EE901AF8EEE77AF268C0EE276A0C
:1055E000C2F3024207EE902AF8EEE77AF36886EEFD
:1055F000A77AC3F3023307EE903AF8EEE77A87EE24
:10560000270AA6E796ED000AB8EE400AA1E796ED54
:10561000010AF9E79FED030A9BE700BF001B374B28
:1056200000FF7F47000000004FF08072074BDA61F7
:10563000A3F54053DA69D20102D56FF01500704727
:105640000160D86910F08070F7D1704700B00E404B
:105650002DE9F0438FB005AA90464468A3682568F9
:105660000393E36827690493674B03F1200C164604
:1056700018685968083303C663453246F7D11B885A
:10568000624A3380624B1A60624A634B1360A2F530
:105690004052966833EA0606FBD1B1465FFA89F0BC
:1056A0000C2109F1010916F0AFFFB9F1060FF5D190
:1056B0000023C5F884300BF0B5F8584BDA6B22F0B4
:1056C0000302DA635A6C012AFCD11A6B22F003023E
:1056D0001A639A6B012AFCD1636AE269DFF844918C
:1056E000009309FB02F2236AA16903980BF040F8CA
:1056F000636BE26A0093A16A049809FB02F2236BD0
:105700000BF036F81121404610F031FD18F8160064
:1057100018F9161009285DD90136112EF6D14FF46B
:10572000006305F540521360D36005F5405205F55E
:10573000405593616B62D4F8D81007F1180041F41A
:105740002A61FFF771FF00284FD1D4F8DC103846EA
:1057500041F47A0141F43041FFF766FF002844D15B
:10576000D4F8E010002945D01F2946D801F52A4178
:1057700007F11400FFF758FF002836D1B4F8E41001
:10578000274D381D2943FFF74FFF70BBB4F8E610D3
:1057900007F108002943FFF747FF30BB6FF0604275
:1057A0001C4B1A60A3F540539D68ED4335F06045EE
:1057B000FAD12946606902AA10F059FE00281FDBC1
:1057C000029B2A461979186810F063FE002817DB3F
:1057D00000200CE004EB01110B6C00934B6CD1E941
:1057E0000E1216F0E8FE002896D16FF015000FB0EB
:1057F000BDE8F0834AF60121BAE74FF42A41B7E742
:10580000831CE5D0F3E700BF98D601107F3BEFEF94
:105810000020024000300240F6FFF3030000014088
:1058200000009696001BB70008B5074817F016F859
:1058300038B10648FEF7ECFD0448FCF7F7FD002000
:1058400008BD6FF01200FBE780D101105158001025
:105850000A2838B50446074D04D1AB680D21284607
:105860005B689847AB6803485B68E1B2984720469D
:1058700038BD00BF80D101104FF05043084A19686D
:10588000084B002918BF134630331A46106820B958
:105890000432D11A1429F9D970470120704700BF8A
:1058A000908202404882024038B5036961B92149BB
:1058B0006423214A21480FF020FF21480FF01DFFEB
:1058C00064211D480FF010FF486850B91D49652339
:1058D000194A1A480FF011FF1B480FF00EFF6521FF
:1058E000EFE7586800B30024884219D108688CB9E2
:1058F0009C685860A14200D19860002008602AB1DD
:105900005A680A609A68596002B9996000200FE0ED
:105910002846E9E720609868814208BF9C60ECE770
:1059200005680446002DF3D1002AE9D16FF0150077
:1059300038BD00BFD0F6011094F601101BE2011033
:10594000D9F60110E8F60110FAF60110F8B543682F
:105950000E469C681546B4FA84F4640901EB4414BD
:10596000B2B9114620460AF0A5FF2D4B03EB840285
:1059700053F8243002F5805183F0800303F0C00314
:105980000B604FF4807302F5005213600020F8BDE5
:105990000769C2F340122046C5F300110AF08AFFDE
:1059A000052120460AF06AFF15F480311BD04FF024
:1059B000000343EC4440AB03E8D5012303FA06F1AE
:1059C000AE07FA681BD50A436807FA603A690ED534
:1059D0000A433A614FF0000343EC4040C5F3804571
:1059E00045EC4440D2E720460AF0B2FFE3E722EA62
:1059F00001023A6143EC4040C5F3C045F0E722EABA
:105A00000102FA6015F4002204D043EC404043EC5C
:105A10004440BBE76903FAD542EC4040F7E700BFDA
:105A20000480034070B50E461546014608B104686F
:105A300001B970BD8A682A4010D04B6863B90B4920
:105A400089230B4A0B480FF058FE0B480FF055FE08
:105A5000892107480FF048FE304698471CB123685B
:105A600021461C46E4E72346FAE700BF11F7011080
:105A700094F601101BE20110FAF601104FF05043AA
:105A80002DE9F0471C4C1A681C4B8246002A18BFAF
:105A90001C464FF00F08002201260769DFF86090CE
:105AA000D10801F10C0354F8230002F007039B0016
:105AB000D84010F00F0F02F1010510D008FA03F3DF
:105AC0008C311F2A49F821300ED9DAF80430203AF7
:105AD000996806FA02F20B695868FFF7A3FF302DA8
:105AE0002A46DDD1BDE8F08706FA02F25146786811
:105AF000FFF798FF2A46D3E748820240908202408F
:105B00000080024080B500AF88B06A46094BCDE9FD
:105B100005304FF40073ADF81C30074B42F8103FCE
:105B200000234FF4E2510548FDF712FB6FF012001D
:105B3000BD4680BD35F701100300000164D6011099
:105B40002DE9F0412DED028B8EB0466804460569C3
:105B500002AF306816F082FE0346002800F0A180F4
:105B6000002372799342C0F0B78064684FF0000E52
:105B7000A369E2684FF0FF385A43674BC7F828E043
:105B8000B3FBF2F34FF4803207EE903A4FF4F83360
:105B9000C7E907234FF4402307F108067B6207F1AA
:105BA0001C0CBCE80F000FC6C6F8008023687146C5
:105BB0005B68C7F82C801E68B8EEE78A30460AF0AA
:105BC000A5FFB0F10008C0F29F80DFED547A78EEB7
:105BD000277A7A69BCEEE77A22F0604343F00053FB
